:020000040800F2
:1000000038A9002001020008290D0008890C000809
:100010008D0C0008A7030008011E00080000000066
:10002000000000000000000000000000ED0E0008CD
:1000300005040008000000002B0D0008C110000896
:100040001B0200081B0200081B0200081B0200081C
:100050001B0200081B0200081B0200081B0200080C
:100060001B0200081B0200081B020008AB0300086B
:100070001B0200081B0200081B0200081B020008EC
:100080001B0200081B0200081B0200081B020008DC
:100090001B0200081B0200081B0200081B020008CC
:1000A0001B0200084D110008711100081B02000816
:1000B000951100081B020008B51100081B0200087A
:1000C0001B0200081B0200081B0200081B0200089C
:1000D0001B020008D1150008D3150008D51500082B
:1000E0001B0200081B0200081B0200081B0200087C
:1000F00045120008691200081B0200081B020008D4
:100100001B0200081B020008D91100081B0200088E
:10011000BB120008BD120008FD11000821120008E2
:100120001B0200081B0200081B0200081B0200083B
:100130001B0200081B0200081B0200081B0200082B
:1001400000000000000000000000000000000000AF
:100150001B0200081B0200081B0200081B0200080B
:100160001B0200081B0200081B0200081B020008FB
:10017000D7150008BF120008C112000800F002F8ED
:1001800000F02EF80AA090E8000C82448344AAF103
:100190000107DA4501D100F023F8AFF2090EBAE801
:1001A0000F0013F0010F18BFFB1A43F001031847AB
:1001B000801C0000901C0000002300240025002665
:1001C000103A28BF78C1FBD8520728BF30C148BFBA
:1001D0000B6070471FB501F01DFE1FBD10B510BDAF
:1001E00000F0A8F81146FFF7F5FF01F00BFE00F054
:1001F000C6F803B4FFF7F2FF03BC00F0CDF800002F
:100200000948804709480047FEE7FEE7FEE7FEE7AA
:10021000FEE7FEE7FEE7FEE7FEE7FEE704480549E6
:10022000054A064B70470000C51000087D01000814
:10023000389B002038A9002038A1002038A10020D8
:10024000032A40F2308010F0030C00F0158011F802
:10025000013BBCF1020F624498BF11F801CB00F8DA
:10026000013B38BF11F8013BA2F1040298BF00F82E
:1002700001CB38BF00F8013B11F0030300F02580EB
:10028000083AC0F0088051F8043B083A51F804CB12
:10029000A0E80810F5E7121D5CBF51F8043B40F8D8
:1002A000043BAFF30080D20724BF11F8013B11F8E3
:1002B00001CB48BF11F8012B24BF00F8013B00F827
:1002C00001CB48BF00F8012B704710B5203AC0F0B1
:1002D0000B80B1E81850203AA0E81850B1E8185047
:1002E000A0E81850BFF4F5AF5FEA027C24BFB1E884
:1002F0001850A0E8185044BF18C918C0BDE81040F5
:100300005FEA827C24BF51F8043B40F8043B08BFFD
:100310007047D20728BF31F8023B48BF11F8012BC4
:1003200028BF20F8023B48BF00F8012B70477047F8
:1003300070477047754600F02BF8AE4605006946D9
:10034000534620F00700854618B020B5FFF766FF3A
:10035000BDE820404FF000064FF000074FF00008C6
:100360004FF0000B21F00701AC46ACE8C009ACE847
:10037000C009ACE8C009ACE8C0098D46704710B5AB
:100380000446AFF300802046BDE81040FFF731BFC0
:1003900000487047D89A002001491820ABBEFEE7FC
:1003A00026000200704700BFFEE710B5022000F0F3
:1003B00013F8012000F002F810BD000000F0805199
:1003C00011B10349086001E002494860704700002C
:1003D000040402400000024001460020002201F017
:1003E000805313B1054B1A6801E0054B1A6802EA05
:1003F00001030BB1012000E000207047000402401F
:10040000000002407047000010B516480088C0B2D6
:10041000FE2825D000F0CEF800F02AF8FE21114881
:1004200000F09CF800BF00BF00BF00BF00BFBFF3DB
:100430004F8F00BF00BF00BF0B48006800F4E060B2
:100440000A490843001D0849086000BF00BF00BFFB
:10045000BFF34F8F00BF00BF00BF00BF00BFFDE76D
:1004600010BD000010F8FF1F0CED00E00000FA05C1
:1004700030B5A525042400F065F800B100254FF043
:10048000805000F0A7F80446042C37D11C481D49C1
:1004900088601D4888600846006940F020000861B7
:1004A0000846006940F040000861C80300F092F877
:1004B0000446042C1AD11348006920F02000114989
:1004C00008610846006940F0100008610F48058087
:1004D0004FF4704000F07EF80446052C0ED0094819
:1004E000006920F010000749086107E0052C05D0DD
:1004F0000448006920F0100002490861204630BD20
:100500002301674500200240AB89EFCD00F8FF1FB3
:1005100004200B49C96801F0010109B101200EE076
:100520000749C96801F0040109B1022007E0044944
:10053000C96801F0100109B1032000E004207047F0
:100540000020024000200449C96901F0020109B1FC
:10055000012000E0002070470020024070B50546F1
:100560000E4604244FF4704000F034F80446042C86
:1005700017D10D480D4988600D488860084600690C
:1005800040F0100008612E804FF4704000F022F817
:100590000446052C05D00548006920F010000349E9
:1005A0000861204670BD000023016745002002401D
:1005B000AB89EFCD044805494860054848600248CA
:1005C000486403484864704723016745002002409F
:1005D000AB89EFCD00B502460423FFF799FF034630
:1005E00003E0FFF795FF0346521E012B01D1002ABD
:1005F000F7D102B90523184600BD2DE9F0410246A6
:1006000000250026002000230024002791F803C0C5
:100610000CF00F0591F803C00CF0100CBCF1000FAA
:1006200003D091F802C04CEA050591F800C0BCF176
:10063000000F31D0146800202BE04FF0010C0CFAB1
:1006400000F3B1F800C00CEA03069E4220D18300FB
:100650004FF00F0C0CFA03F7BC4305FA03FC4CEA0D
:10066000040491F803C0BCF1280F06D14FF0010C2F
:100670000CFA00FCC2F814C00AE091F803C0BCF107
:10068000480F05D14FF0010C0CFA00FCC2F810C065
:10069000401C0828D1D31460B1F800C0BCF1FF0F92
:1006A00034DD546800202EE000F1080C4FF0010802
:1006B00008FA0CF3B1F800C00CEA03069E4221D1FF
:1006C00083004FF00F0C0CFA03F7BC4305FA03FC50
:1006D0004CEA040491F803C0BCF1280F05D100F1E5
:1006E000080C08FA0CF8C2F8148091F803C0BCF1A9
:1006F000480F07D100F1080C4FF0010808FA0CF878
:10070000C2F81080401C0828CED35460BDE8F081A8
:10071000F0B50346B3F1004F71D90025002223F054
:100720000044E50904F07F04220904F00F04970057
:1007300004FA07F6062D15D2DFE805F00305080BCD
:100740000E11F8480FE0F748001D0CE0F54808309E
:1007500009E0F4480C3006E0F248103003E0F148BC
:10076000143000E000BF00BF22B9076827F00F0770
:1007700007603DE0012A12D1012D0BD1042C04D9D0
:10078000076827F0C007076032E0076827F03007E6
:1007900007602DE0076827F0F007076028E0022ACD
:1007A00004D1076827F47067076021E0032A04D1A9
:1007B000076827F4704707601AE0042A04D1076825
:1007C00027F47027076013E0052A04D1076827F48F
:1007D000700707600CE0062A04D1076827F07067ED
:1007E000076005E0072A03D1076827F07047076014
:1007F000012902D10768374307603EE2FFE7B3F5FE
:10080000802F6FD037DCB3F5007F6CD015DC102B58
:100810006AD008DC012B68D0022B7BD0042B7AD065
:10082000082B72D17CE0302B70D0402B6FD0C02BC6
:100830006ED0B3F5807FF4D1E4E0B3F5804F68D09B
:100840000CDCB3F5407F7CD0B3F5006F7AD0B3F504
:10085000406F78D0B3F5805FE3D162E0B3F5C04F6D
:1008600072D0B3F5004F57D0B3F5803F55D0B3F5F4
:10087000003FD6D152E0B3F1005F76D01DDCB3F576
:10088000000F73D00CDCB3F5002F4BD0B3F5801FF5
:1008900049D0B3F5001F6AD0B3F5800FC1D18FE105
:1008A000B3F1807F74D0B3F1007F72D0B3F1806F69
:1008B00070D0B3F1805FB4D166E19B4A981A93423D
:1008C00069D014DCB3F1804F76D0A3F1804020389A
:1008D000002872D0B0F5787F70D0944A1044002878
:1008E0009FD18BE11BE09DE042E02EE012E0B0F5ED
:1008F000802F74D0B0F5402F72D0B0F5A01F70D00B
:10090000B0F5E01F8DD17BE105E0B4E144E056E0B5
:1009100068E0C7E000BF00BF00BF00BF00BF00BF6E
:1009200000BF00BF00BF7F482038406898437D4A21
:10093000203A5060012903D11046406818435060A6
:100940009AE17FE08EE09DE0BCE076482038406888
:10095000774A1040734A203A5060012904D110466A
:10096000406840F00100506086E1FFE01AE135E1A7
:100970006C482038406820F030006A4A203A5060C5
:10098000012904D11046406840F01000506073E126
:10099000A8E0B7E0CEE032E162482038406820F0BD
:1009A0003000604A203A5060012904D11046406866
:1009B00040F0300050605FE1CAE01DE11DE15948A0
:1009C0002038406820F0C000564A203A5060012983
:1009D00004D11046406840F0400050604CE120E1F6
:1009E0002DE13AE14F482038406820F0C0004D4AE0
:1009F000203A5060012904D11046406840F0C00000
:100A0000506039E147482038406820F44070454A3A
:100A1000203A5060012904D11046406840F48070AB
:100A2000506029E13F482038406820F440703D4A3A
:100A3000203A5060012904D11046406840F400700B
:100A4000506019E137482038406820F44070354A3A
:100A5000203A5060012904D11046406840F44070AB
:100A6000506009E12F482038406820F440602D4A4A
:100A7000203A5060012904D11046406840F40060DB
:100A80005060F9E027482038406820F44060254A4B
:100A9000203A5060012904D11046406840F440607B
:100AA0005060E9E01F482038406820F4C0401D4AEB
:100AB000203A5060012904D11046406840F480403B
:100AC0005060D9E017482038406820F4C040154AEB
:100AD000203A5060012904D11046406840F4C040DB
:100AE0005060C9E00F482038406820F0E0600D4AAF
:100AF000203A5060012904D11046406840F08070CF
:100B00005060B9E007482038406820F0E060054AAE
:100B1000203A5060012904D11046406840F000702E
:100B20005060A9E020000140000004402000FEFFCA
:100B3000FEFFFF7F5148406820F0E0604F4A506060
:100B4000012904D11046406840F08060506093E075
:100B50004A48406820F08040484A5060012904D14A
:100B60001046406840F08040506085E0434840684F
:100B700020F00050414A5060012904D110464068DD
:100B800040F00050506077E03C48406820F08050D2
:100B90003A4A5060012904D11046406840F0805024
:100BA000506069E03548406820F40000334A5060E6
:100BB000012904D11046406840F4000050605BE019
:100BC0002E48406820F480002C4A5060012904D14E
:100BD0001046406840F4800050604DE0274840686F
:100BE00020F40010254A5060012904D110464068C5
:100BF00040F4001050603FE000BF00BF00BF00BFE6
:100C00001E48C069C3F3150290431C4AD0610129F4
:100C100006D11046C069C3F315021043174AD061CC
:100C20002AE01648C06920F4C010144AD061012996
:100C300004D11046C06940F40020D0611CE00F4888
:100C4000C06920F4C0100D4AD061012904D11046BA
:100C5000C06940F48010D0610EE00848C06920F4FB
:100C6000C010064AD061012904D11046C06940F481
:100C7000C010D06100E000BF00BFF0BD0000014027
:100C8000416170470161704700BFFEE700BFFEE7AA
:100C900008B501217C2000F059F80121084600F038
:100CA00055F801214806FFF733FD8020ADF800001C
:100CB00001208DF8020010208DF8030069461948C4
:100CC000FFF79BFC4020ADF8000001208DF80200EA
:100CD00004208DF8030069461248FFF78EFC1020AF
:100CE000ADF8000001208DF8020010208DF80300FF
:100CF00069460C48FFF781FC2020ADF80000012078
:100D00008DF8020010208DF8030069460548FFF7B2
:100D100074FC20210348FFF7B3FF10210148FFF7BF
:100D2000B1FF08BD000801407047704729B1064A6D
:100D3000D2690243044BDA6104E0034AD269824378
:100D4000014BDA61704700000010024029B1064AE9
:100D500092690243044B9A6104E0034A9269824318
:100D6000014B9A617047000000100240F0B500246A
:100D700000220021002500234C4E766806F00C026C
:100D800022B1042A05D0082A46D105E0484E066063
:100D900045E0474E066042E0444E766806F48035F2
:100DA000424E7668434F06EA070101F0C04636B965
:100DB00001F47016B6F5701F01D0022600E001267E
:100DC00001F0C047C1F3834C4CEA5767F1191DB9D4
:100DD000394E4E43066013E0344E766806F4003612
:100DE0005EB1324E766D06F44054240BA61C304F93
:100DF000B7FBF6F64E43066002E02D4E4E4306600A
:100E00002A4E766806F000462EB92C4F0668BE4280
:100E100001D93E46066002E0254E066000BF00BFD5
:100E2000224E7668C6F30212204E766806F08006DF
:100E300016B1234EB65C00E0002633460668DE405D
:100E400046601A4E7668C6F30122184E766806F49C
:100E5000806616B11A4EB65C00E00026334646683E
:100E6000DE408660114E7668C6F3C1220F4E76686A
:100E700006F4005616B1124EB65C00E0002633466A
:100E80004668DE40C660094E7668C6F38132074E7A
:100E9000766806F080560EB142F00402094EB35C4B
:100EA000C668B6FBF3F60661F0BD00000010024014
:100EB00000127A0000003C6000093D0000A24A04D4
:100EC0001E1E0008261E0008012806D10649496D8D
:100ED00041F03001044A516505E00349496D21F0B4
:100EE0003001014A51657047001002407047000010
:100EF00008B501217C20FFF729FF01210846FFF7F3
:100F000025FF01214806FFF703FC0220ADF8000091
:100F100001208DF8020004208DF80300694629485D
:100F2000FFF76BFB0820ADF8000001208DF80200F0
:100F300004208DF8030069462248FFF75EFB10206D
:100F4000ADF8000001208DF8020004208DF80300A8
:100F500069461C48FFF751FB2020ADF80000012036
:100F60008DF8020004208DF8030069461548FFF74C
:100F700044FB4020ADF8000001208DF80200042061
:100F80008DF8030069460F48FFF737FB8020ADF866
:100F9000000001208DF8020004208DF8030069464E
:100FA0000848FFF72AFB4FF48040ADF8000001200D
:100FB0008DF8020004208DF8030069460248FFF70F
:100FC0001CFB08BD001401400018014010B500F0E2
:100FD00001F810BD1CB50020019000903548006854
:100FE00040F480303349086000BF3248006800F4A4
:100FF000003000900198401C0190009818B90198A9
:10100000B0F5405FF1D12B48006800F4003010B11A
:101010000120009001E0002000900098012847D1B5
:1010200024484068234948600846406820F46050DE
:1010300048600846406840F40050486008464068F0
:1010400020F4E06048600846406840F480604860F2
:1010500008464068184908401649486008464068F4
:1010600016490843134948600846006840F08070FC
:10107000086000BF0F48006800F000700028F9D039
:101080000120FFF721FF0B48406820F003000949C9
:1010900048600846406840F00200486000BF0548CC
:1010A000406800F00C000828F9D10020FFF70CFF81
:1010B0001CBD000000100240FFFFC01F00001DA06B
:1010C0007047000010B5FFF79FF91A48006840F418
:1010D0007000184908601848006840F0010016497F
:1010E00008600846406815490840134948600846AA
:1010F000006813490840104908600846006820F459
:1011000080200860084640680E4908400A49486047
:101110000846006B0C490840074908634FF41F005C
:101120008860FFF753FF4FF0006002498039086084
:1011300010BD000088ED00E0001002400C00FFE848
:10114000FFFFF6FEFFFF001700FFFEFE10B50121B6
:10115000064800F0A1F818B10121044800F099F800
:101160000121024800F092F810BD0000002C01405F
:1011700010B50121064800F08FF818B1012104488C
:1011800000F087F80121024800F080F810BD00004F
:101190000054014010B50121880700F07DF818B116
:1011A0000121880700F075F80121880700F06EF82A
:1011B00010BD000010B50121064800F06DF818B10F
:1011C0000121044800F065F80121024800F05EF8B2
:1011D00010BD00000008004010B50121064800F0D5
:1011E0005BF818B10121044800F053F801210248CE
:1011F00000F04CF810BD0000000C004010B50121BB
:10120000064800F049F818B10121044800F041F8FF
:101210000121024800F03AF810BD00000010004023
:1012200010B50121064800F037F818B10121044833
:1012300000F02FF80121024800F028F810BD00004E
:101240000014004010B50121064800F025F818B13F
:101250000121044800F01DF80121024800F016F8B1
:1012600010BD0000001C004010B50121064800F030
:1012700013F818B10121044800F00BF801210248CD
:1012800000F004F810BD000000200040CA430282B4
:101290007047CA430282704730B5024600200023DF
:1012A0000024158A05EA0103958905EA010413B1B2
:1012B0000CB1012000E0002030BD7047704770473E
:1012C0007047000000B587B001217C20FFF73EFD8C
:1012D00001210846FFF73AFD01214806FFF718FAF9
:1012E00001210805FFF722FD0420ADF80000482089
:1012F0008DF8030069462248FFF77FF94FF48050CC
:10130000ADF8000001208DF8020018208DF80300D0
:1013100069461C48FFF771F94FF49640039000208E
:10132000ADF81000ADF81200ADF81400ADF81800DB
:101330000C20ADF8160003A9134800F099FC00201A
:10134000ADF80400ADF806004FF40070ADF80800E9
:101350000020ADF80A0001A90B4800F046FC01226C
:1013600040F22551084800F05DFC0121064800F0DC
:101370004DFC4021044800F02FFC07B000BD0000E8
:101380000014014000100140005000400FB410B59F
:10139000692202A90A48FEF753FF00200849A1F874
:1013A0006600084948710520A1F80300012240F2B7
:1013B0002771054800F036FC10BC5DF814FB0000F6
:1013C000D9030020420400200050004000B587B03F
:1013D00001217C20FFF7BAFC01210846FFF7B6FC8B
:1013E00001214806FFF794F901214806FFF7AEFCFA
:1013F0008020ADF8000048208DF80300694622489F
:10140000FFF7FBF84FF48070ADF8000001208DF875
:10141000020018208DF8030069461B48FFF7EDF81D
:101420004FF4964003900020ADF81000ADF8120084
:10143000ADF81400ADF818000C20ADF8160003A9A3
:10144000124800F015FC0020ADF80400ADF80600CD
:101450004FF40070ADF808000020ADF80A0001A9B3
:101460000A4800F0C2FB012240F22551074800F073
:10147000D9FB0121054800F0C9FB4021034800F0D9
:10148000ABFB07B000BD0000001801400064014044
:101490000FB410B5692202A90A48FEF7D1FE002058
:1014A0000849A1F86600084948710520A1F8030021
:1014B000012240F22771054800F0B4FB10BC5DF832
:1014C00014FB000091050020FA0500200064014093
:1014D00000B587B001217C20FFF738FC01210846C8
:1014E000FFF734FC01214806FFF712F901218806B5
:1014F000FFF72CFC0120ADF8000048208DF8030018
:1015000069462148FFF779F80220ADF80000012074
:101510008DF8020018208DF8030069461A48FFF77D
:101520006CF84FF4964003900020ADF81000ADF831
:101530001200ADF81400ADF818000C20ADF816003C
:1015400003A9124800F094FB0020ADF80400ADF8A8
:1015500006004FF40070ADF808000020ADF80A0056
:1015600001A90A4800F041FB012240F22551074839
:1015700000F058FB0121054800F048FB40210348DA
:1015800000F02AFB07B000BD0018014000680140D0
:101590000FB410B5692202A90A48FEF751FE0020D7
:1015A0000849A1F86600084948710520A1F8030020
:1015B000012240F22771054800F034FB10BC5DF8B1
:1015C00014FB00006D060020D606002000680140D4
:1015D000704770477047704700B587B001217C2085
:1015E000FFF7B4FB01210846FFF7B0FB01214806D5
:1015F000FFF78EF801218803FFF7A8FB4FF4806006
:10160000ADF8000048208DF8030069462148FEF738
:10161000F4FF4FF40070ADF8000001208DF80200D7
:1016200018208DF8030069461A48FEF7E6FF4FF4CC
:10163000964003900020ADF81000ADF81200ADF810
:101640001400ADF818000C20ADF8160003A91248DC
:1016500000F00EFB0020ADF80400ADF806004FF4DA
:101660000070ADF808000020ADF80A0001A90A4892
:1016700000F0BBFA012240F22551074800F0D2FAEF
:101680000121054800F0C2FA4021034800F0A4FA05
:1016900007B000BD00080140003801400FB410B58C
:1016A000692202A90A48FEF7CBFD00200849A1F8EB
:1016B0006600084948710520A1F80300012240F2A4
:1016C0002771054800F0AEFA10BC5DF814FB00006D
:1016D00069000020D20000200038014000B587B02A
:1016E00001217C20FFF732FB01210846FFF72EFB8A
:1016F00001214806FFF70CF801214804FFF716FB0B
:101700000820ADF8000048208DF803006946214804
:10171000FEF773FF0420ADF8000001208DF80200F1
:1017200018208DF8030069461A48FEF766FF4FF44B
:10173000964003900020ADF81000ADF81200ADF80F
:101740001400ADF818000C20ADF8160003A91248DB
:1017500000F08EFA0020ADF80400ADF806004FF45A
:101760000070ADF808000020ADF80A0001A90A4891
:1017700000F03BFA012240F22551074800F052FAEE
:101780000121054800F042FA4021034800F024FA04
:1017900007B000BD00080140004400400FB410B580
:1017A000692202A90A48FEF74BFD00200849A1F86A
:1017B0006600084948710520A1F80300012240F2A3
:1017C0002771054800F02EFA10BC5DF814FB0000EC
:1017D00045010020AE0100200044004000B587B064
:1017E00001217C20FFF7B2FA01210846FFF7AEFA8B
:1017F00001214806FEF78CFF01218804FFF796FAC5
:101800004FF40060ADF8000048208DF803006946F1
:101810002148FEF7F2FE4FF48060ADF80000012091
:101820008DF8020018208DF8030069461A48FEF76B
:10183000E4FE4FF4964003900020ADF81000ADF8A0
:101840001200ADF81400ADF818000C20ADF8160029
:1018500003A9124800F00CFA0020ADF80400ADF81E
:1018600006004FF40070ADF808000020ADF80A0043
:1018700001A90A4800F0B9F9012240F225510748B0
:1018800000F0D0F90121054800F0C0F940210348DB
:1018900000F0A2F907B000BD000C01400048004074
:1018A0000FB410B5692202A90A48FEF7C9FC00204E
:1018B0000849A1F86600084948710520A1F803000D
:1018C000012240F22771054800F0ACF910BC5DF828
:1018D00014FB0000210200208A0200200048004082
:1018E00000B587B001217C20FFF730FA01210846BE
:1018F000FFF72CFA01214806FEF70AFF0121C80470
:10190000FFF714FA4FF40060ADF8000048208DF89E
:10191000030069462148FEF770FE4FF48060ADF881
:10192000000001208DF8020018208DF803006946A0
:101930001A48FEF762FE4FF4964003900020ADF87F
:101940001000ADF81200ADF81400ADF818000C202E
:10195000ADF8160003A9124800F08AF90020ADF88E
:101960000400ADF806004FF40070ADF80800002048
:10197000ADF80A0001A90A4800F037F9012240F247
:101980002551074800F04EF90121054800F03EF9C5
:101990004021034800F020F907B000BD00100140CD
:1019A000004C00400FB410B5692202A90A48FEF7A6
:1019B00047FC00200849A1F8660008494871052045
:1019C000A1F80300012240F22771054800F02AF92E
:1019D00010BC5DF814FB0000FD020020660300202F
:1019E000004C004000B587B001217C20FFF7AEF924
:1019F00001210846FFF7AAF901214806FEF788FEF3
:101A000001210806FFF7A2F98020ADF80000482068
:101A10008DF8030069462148FEF7EFFD4020ADF840
:101A2000000001208DF8020018208DF8030069469F
:101A30001A48FEF7E2FD4FF4964003900020ADF8FF
:101A40001000ADF81200ADF81400ADF818000C202D
:101A5000ADF8160003A9124800F00AF90020ADF80D
:101A60000400ADF806004FF40070ADF80800002047
:101A7000ADF80A0001A90A4800F0B7F8012240F2C7
:101A80002551074800F0CEF80121054800F0BEF8C6
:101A90004021034800F0A0F807B000BD001001404D
:101AA000006001400FB410B5692202A90A48FEF790
:101AB000C7FB00200849A1F86600084948710520C5
:101AC000A1F80300012240F22771054800F0AAF8AE
:101AD00010BC5DF814FB0000B50400201E050020BA
:101AE0000060014000202C49A1F83808A1F8340812
:101AF000A1F836082948C1F83A0800212848A0F87A
:101B00000819A0F80419A0F806192649C0F80A19FE
:101B100000212548A0F80819A0F80419A0F8061912
:101B20002249C0F80A1900212148A0F80819A0F894
:101B30000419A0F806191F49C0F80A1900201E4907
:101B4000A1F81E04A1F81A04A1F81C041B48C1F84E
:101B5000200400201A49A1F81E04A1F81A04A1F8D3
:101B60001C041848C1F8200400201749A1F81E04DD
:101B7000A1F81A04A1F81C041448C1F8200400209C
:101B80001349A1F81E04A1F81A04A1F81C04114875
:101B9000C1F8200470470000E00600209D160008F0
:101BA0001E2F00209D1700082C580020A1180008A7
:101BB0003A810020A5190008488A00208D130008EA
:101BC0006C8E0020A51A0008909200209114000845
:101BD000B49600209115000801F40072B2F5007F60
:101BE00000D100BFCA430280704710B502460020F2
:101BF000108A4FF2FF0318400B884C8823438C88CF
:101C00002343CC8823431843108210BD21B182891D
:101C100042F40052828104E082894DF6FF731A403B
:101C200082817047F0B5034600240026002500207D
:101C300040F66A17B94200D100BF1846C1F34214FA
:101C400001F01F06012707FA06F5012C01D10C301F
:101C500004E0022C01D1103000E014301AB1076802
:101C60002F43076002E00768AF430760F0BD000044
:101C70002DE9F04786B005460E460024A24600BF77
:101C8000A1460027B08900B100BF2F462C8A4CF630
:101C9000FF700440F08804432C82AC894EF6F310A8
:101CA0000440B08831890843718908430443AC81FA
:101CB000AC8A4FF6FF400440B0890443AC8201A8CF
:101CC000FFF754F81F48874202D1DDF810A001E069
:101CD000DDF80CA0A88900F4004040B10AEBCA006E
:101CE00000EB0A1031684900B0FBF1F807E00AEB9D
:101CF000CA0000EB0A1031688900B0FBF1F86420DB
:101D0000B8FBF0F004012009642101FB1089A889C7
:101D100000F4004040B1322000EBC900B0FBF1F00C
:101D200000F00700044308E0322000EB09106421B2
:101D3000B0FBF1F000F00F0004432C8106B0BDE8C9
:101D4000F08700000038014010B5FFF745FC184847
:101D50001849C1F80600FFF7C1FC17481749C1F838
:101D60000600FFF73BFD16481649C1F80600FFF7CD
:101D7000B7FD15481549C1F80600FFF7A3FA144846
:101D80001449C1F80600FFF72DFE13481349C1F8A6
:101D90000600FFF71BFB12481249C1F80600FFF7C7
:101DA00097FB11481149C1F80600FFF79BFE10BDD3
:101DB000F11D0008D2000020F31D0008AE01002034
:101DC000F51D00088A020020F71D000866030020A8
:101DD000F91D000842040020FB1D00081E0500201C
:101DE000FD1D0008FA050020FF1D0008D606002092
:101DF000704770477047704770477047704770472B
:101E000000BFFEE7FFF7A0FFFFF772F8FEF740FF05
:101E100000BFFEE74FF04070E1EE100A704701028C
:101E200003040607080902040608020C0810000053
:101E3000401E00080000002038A90000B80100087A
:040000050800017D71
:00000001FF
